{
  "address": "0xe0aD08854a0231Ae985b5D25c997cEB9EEAAbE02",
  "abi": [
    {
      "inputs": [
        {
          "internalType": "contract IUniswapV3Factory",
          "name": "factory_",
          "type": "address"
        },
        {
          "internalType": "address",
          "name": "weth_",
          "type": "address"
        },
        {
          "internalType": "address",
          "name": "dai_",
          "type": "address"
        }
      ],
      "stateMutability": "nonpayable",
      "type": "constructor"
    },
    {
      "inputs": [],
      "name": "CALLBACK_SUCCESS",
      "outputs": [
        {
          "internalType": "bytes32",
          "name": "",
          "type": "bytes32"
        }
      ],
      "stateMutability": "view",
      "type": "function"
    },
    {
      "inputs": [],
      "name": "factory",
      "outputs": [
        {
          "internalType": "contract IUniswapV3Factory",
          "name": "",
          "type": "address"
        }
      ],
      "stateMutability": "view",
      "type": "function"
    },
    {
      "inputs": [
        {
          "internalType": "address",
          "name": "token",
          "type": "address"
        },
        {
          "internalType": "uint256",
          "name": "amount",
          "type": "uint256"
        }
      ],
      "name": "flashFee",
      "outputs": [
        {
          "internalType": "uint256",
          "name": "",
          "type": "uint256"
        }
      ],
      "stateMutability": "view",
      "type": "function"
    },
    {
      "inputs": [
        {
          "internalType": "contract IERC3156FlashBorrower",
          "name": "receiver",
          "type": "address"
        },
        {
          "internalType": "address",
          "name": "token",
          "type": "address"
        },
        {
          "internalType": "uint256",
          "name": "amount",
          "type": "uint256"
        },
        {
          "internalType": "bytes",
          "name": "userData",
          "type": "bytes"
        }
      ],
      "name": "flashLoan",
      "outputs": [
        {
          "internalType": "bool",
          "name": "",
          "type": "bool"
        }
      ],
      "stateMutability": "nonpayable",
      "type": "function"
    },
    {
      "inputs": [
        {
          "internalType": "address",
          "name": "token",
          "type": "address"
        }
      ],
      "name": "getPairAddress",
      "outputs": [
        {
          "internalType": "address",
          "name": "",
          "type": "address"
        }
      ],
      "stateMutability": "view",
      "type": "function"
    },
    {
      "inputs": [
        {
          "internalType": "address",
          "name": "token",
          "type": "address"
        }
      ],
      "name": "maxFlashLoan",
      "outputs": [
        {
          "internalType": "uint256",
          "name": "",
          "type": "uint256"
        }
      ],
      "stateMutability": "view",
      "type": "function"
    },
    {
      "inputs": [
        {
          "internalType": "uint256",
          "name": "",
          "type": "uint256"
        },
        {
          "internalType": "uint256",
          "name": "",
          "type": "uint256"
        },
        {
          "internalType": "bytes",
          "name": "data",
          "type": "bytes"
        }
      ],
      "name": "uniswapV3FlashCallback",
      "outputs": [],
      "stateMutability": "nonpayable",
      "type": "function"
    }
  ],
  "transactionHash": "0x589305522df520960001522835f00034fde5a00c30883f5d11e90d8f9aaad4a5",
  "args": [
    "0x1F98431c8aD98523631AE4a59f267346ea31F984",
    "0x207eD1742cc0BeBD03E50e855d3a14E41f93A461",
    "0x8C0366c40801161A0375106fD3D9B29d4Fb9b918"
  ],
  "solcInputHash": "58d36b7d900f0fa16d45268904ec6d6f",
  "bytecode": "0x60806040523480156200001157600080fd5b506040516200187d3803806200187d833981810160405281019062000037919062000130565b826000806101000a81548173ffffffffffffffffffffffffffffffffffffffff021916908373ffffffffffffffffffffffffffffffffffffffff16021790555081600260006101000a81548173ffffffffffffffffffffffffffffffffffffffff021916908373ffffffffffffffffffffffffffffffffffffffff16021790555080600360006101000a81548173ffffffffffffffffffffffffffffffffffffffff021916908373ffffffffffffffffffffffffffffffffffffffff16021790555050505062000202565b6000815190506200011381620001ce565b92915050565b6000815190506200012a81620001e8565b92915050565b6000806000606084860312156200014657600080fd5b6000620001568682870162000119565b9350506020620001698682870162000102565b92505060406200017c8682870162000102565b9150509250925092565b60006200019382620001ae565b9050919050565b6000620001a78262000186565b9050919050565b600073ffffffffffffffffffffffffffffffffffffffff82169050919050565b620001d98162000186565b8114620001e557600080fd5b50565b620001f3816200019a565b8114620001ff57600080fd5b50565b61166b80620002126000396000f3fe608060405234801561001057600080fd5b506004361061007d5760003560e01c806385e694b61161005b57806385e694b614610100578063c45a015514610130578063d9d98ce41461014e578063e9cbafb01461017e5761007d565b80635cffe9de14610082578063613255ab146100b25780638237e538146100e2575b600080fd5b61009c60048036038101906100979190610df0565b61019a565b6040516100a9919061128d565b60405180910390f35b6100cc60048036038101906100c79190610d10565b6104f0565b6040516100d9919061133e565b60405180910390f35b6100ea6105e2565b6040516100f791906112a8565b60405180910390f35b61011a60048036038101906101159190610d10565b610606565b6040516101279190611135565b60405180910390f35b610138610763565b60405161014591906112c3565b60405180910390f35b61016860048036038101906101639190610d62565b610787565b604051610175919061133e565b60405180910390f35b61019860048036038101906101939190610f23565b61083f565b005b6000806101a685610606565b9050600073ffffffffffffffffffffffffffffffffffffffff168173ffffffffffffffffffffffffffffffffffffffff161415610218576040517f08c379a000000000000000000000000000000000000000000000000000000000815260040161020f906112fe565b60405180910390fd5b60008190508173ffffffffffffffffffffffffffffffffffffffff16600160009054906101000a900473ffffffffffffffffffffffffffffffffffffffff1673ffffffffffffffffffffffffffffffffffffffff16146102b45781600160006101000a81548173ffffffffffffffffffffffffffffffffffffffff021916908373ffffffffffffffffffffffffffffffffffffffff1602179055505b60008173ffffffffffffffffffffffffffffffffffffffff16630dfe16816040518163ffffffff1660e01b815260040160206040518083038186803b1580156102fc57600080fd5b505afa158015610310573d6000803e3d6000fd5b505050506040513d601f19601f820116820180604052508101906103349190610d39565b905060008273ffffffffffffffffffffffffffffffffffffffff1663d21220a76040518163ffffffff1660e01b815260040160206040518083038186803b15801561037e57600080fd5b505afa158015610392573d6000803e3d6000fd5b505050506040513d601f19601f820116820180604052508101906103b69190610d39565b905060008273ffffffffffffffffffffffffffffffffffffffff168973ffffffffffffffffffffffffffffffffffffffff16146103f45760006103f6565b875b905060008273ffffffffffffffffffffffffffffffffffffffff168a73ffffffffffffffffffffffffffffffffffffffff1614610434576000610436565b885b9050600089338d8d8c604051602001610453959493929190611359565b604051602081830303815290604052905061046d8b610606565b73ffffffffffffffffffffffffffffffffffffffff1663490e6cbc308585856040518563ffffffff1660e01b81526004016104ab9493929190611241565b600060405180830381600087803b1580156104c557600080fd5b505af11580156104d9573d6000803e3d6000fd5b505050506001975050505050505050949350505050565b6000806104fc83610606565b9050600073ffffffffffffffffffffffffffffffffffffffff168173ffffffffffffffffffffffffffffffffffffffff16146105d75760008373ffffffffffffffffffffffffffffffffffffffff166370a08231836040518263ffffffff1660e01b815260040161056d9190611135565b60206040518083038186803b15801561058557600080fd5b505afa158015610599573d6000803e3d6000fd5b505050506040513d601f19601f820116820180604052508101906105bd9190610e6b565b905060008111156105d55760018103925050506105dd565b505b60009150505b919050565b7f439148f0bbc682ca079e46d6e2c2f0c1e3b820f1a291b069d8882abf8cf18dd981565b600080600260009054906101000a900473ffffffffffffffffffffffffffffffffffffffff1673ffffffffffffffffffffffffffffffffffffffff168373ffffffffffffffffffffffffffffffffffffffff161461068657600260009054906101000a900473ffffffffffffffffffffffffffffffffffffffff166106aa565b600360009054906101000a900473ffffffffffffffffffffffffffffffffffffffff165b905060008054906101000a900473ffffffffffffffffffffffffffffffffffffffff1673ffffffffffffffffffffffffffffffffffffffff16631698ee828483610bb86040518463ffffffff1660e01b815260040161070b93929190611187565b60206040518083038186803b15801561072357600080fd5b505afa158015610737573d6000803e3d6000fd5b505050506040513d601f19601f8201168201806040525081019061075b9190610d39565b915050919050565b60008054906101000a900473ffffffffffffffffffffffffffffffffffffffff1681565b60008073ffffffffffffffffffffffffffffffffffffffff166107a984610606565b73ffffffffffffffffffffffffffffffffffffffff161415610800576040517f08c379a00000000000000000000000000000000000000000000000000000000081526004016107f7906112fe565b60405180910390fd5b6000620f3688620f424084028161081357fe5b0490506000620f3688620f424083028161082957fe5b0490506000828203905080935050505092915050565b600160009054906101000a900473ffffffffffffffffffffffffffffffffffffffff1673ffffffffffffffffffffffffffffffffffffffff163373ffffffffffffffffffffffffffffffffffffffff16146108cf576040517f08c379a00000000000000000000000000000000000000000000000000000000081526004016108c6906112de565b60405180910390fd5b600080600080600086868101906108e69190610e94565b9450945094509450945060006108fc8387610787565b90508273ffffffffffffffffffffffffffffffffffffffff1663a9059cbb85886040518363ffffffff1660e01b8152600401610939929190611218565b602060405180830381600087803b15801561095357600080fd5b505af1158015610967573d6000803e3d6000fd5b505050506040513d601f19601f8201168201806040525081019061098b9190610d9e565b507f439148f0bbc682ca079e46d6e2c2f0c1e3b820f1a291b069d8882abf8cf18dd98473ffffffffffffffffffffffffffffffffffffffff166323e30c8b87868a86886040518663ffffffff1660e01b81526004016109ee9594939291906111be565b602060405180830381600087803b158015610a0857600080fd5b505af1158015610a1c573d6000803e3d6000fd5b505050506040513d601f19601f82011682018060405250810190610a409190610dc7565b14610a80576040517f08c379a0000000000000000000000000000000000000000000000000000000008152600401610a779061131e565b60405180910390fd5b8273ffffffffffffffffffffffffffffffffffffffff166323b872dd8533610ab1858b610b2e90919063ffffffff16565b6040518463ffffffff1660e01b8152600401610acf93929190611150565b602060405180830381600087803b158015610ae957600080fd5b505af1158015610afd573d6000803e3d6000fd5b505050506040513d601f19601f82011682018060405250810190610b219190610d9e565b5050505050505050505050565b600080828401905083811015610bac576040517f08c379a000000000000000000000000000000000000000000000000000000000815260040180806020018281038252601b8152602001807f536166654d6174683a206164646974696f6e206f766572666c6f77000000000081525060200191505060405180910390fd5b8091505092915050565b6000610bc9610bc4846113e4565b6113b3565b905082815260208101848484011115610be157600080fd5b610bec848285611556565b509392505050565b600081359050610c03816115ab565b92915050565b600081519050610c18816115ab565b92915050565b600081359050610c2d816115c2565b92915050565b600081519050610c42816115d9565b92915050565b600081519050610c57816115f0565b92915050565b60008083601f840112610c6f57600080fd5b8235905067ffffffffffffffff811115610c8857600080fd5b602083019150836001820283011115610ca057600080fd5b9250929050565b600082601f830112610cb857600080fd5b8135610cc8848260208601610bb6565b91505092915050565b600081359050610ce081611607565b92915050565b600081359050610cf58161161e565b92915050565b600081519050610d0a8161161e565b92915050565b600060208284031215610d2257600080fd5b6000610d3084828501610bf4565b91505092915050565b600060208284031215610d4b57600080fd5b6000610d5984828501610c09565b91505092915050565b60008060408385031215610d7557600080fd5b6000610d8385828601610bf4565b9250506020610d9485828601610ce6565b9150509250929050565b600060208284031215610db057600080fd5b6000610dbe84828501610c33565b91505092915050565b600060208284031215610dd957600080fd5b6000610de784828501610c48565b91505092915050565b60008060008060808587031215610e0657600080fd5b6000610e1487828801610cd1565b9450506020610e2587828801610bf4565b9350506040610e3687828801610ce6565b925050606085013567ffffffffffffffff811115610e5357600080fd5b610e5f87828801610ca7565b91505092959194509250565b600060208284031215610e7d57600080fd5b6000610e8b84828501610cfb565b91505092915050565b600080600080600060a08688031215610eac57600080fd5b6000610eba88828901610ce6565b9550506020610ecb88828901610c1e565b9450506040610edc88828901610cd1565b9350506060610eed88828901610c1e565b925050608086013567ffffffffffffffff811115610f0a57600080fd5b610f1688828901610ca7565b9150509295509295909350565b60008060008060608587031215610f3957600080fd5b6000610f4787828801610ce6565b9450506020610f5887828801610ce6565b935050604085013567ffffffffffffffff811115610f7557600080fd5b610f8187828801610c5d565b925092505092959194509250565b610f98816114c6565b82525050565b610fa781611453565b82525050565b610fb681611441565b82525050565b610fc581611465565b82525050565b610fd481611471565b82525050565b6000610fe582611414565b610fef818561141f565b9350610fff818560208601611565565b6110088161159a565b840191505092915050565b61101c816114d8565b82525050565b61102b816114fc565b82525050565b61103a81611520565b82525050565b600061104d602983611430565b91507f6f6e6c79207065726d697373696f6e656420556e69737761705633207061697260008301527f2063616e2063616c6c00000000000000000000000000000000000000000000006020830152604082019050919050565b60006110b3601483611430565b91507f556e737570706f727465642063757272656e63790000000000000000000000006000830152602082019050919050565b60006110f3600f83611430565b91507f43616c6c6261636b206661696c656400000000000000000000000000000000006000830152602082019050919050565b61112f816114bc565b82525050565b600060208201905061114a6000830184610fad565b92915050565b60006060820190506111656000830186610fad565b6111726020830185610f8f565b61117f6040830184611126565b949350505050565b600060608201905061119c6000830186610fad565b6111a96020830185610fad565b6111b66040830184611031565b949350505050565b600060a0820190506111d36000830188610fad565b6111e06020830187610fad565b6111ed6040830186611126565b6111fa6060830185611126565b818103608083015261120c8184610fda565b90509695505050505050565b600060408201905061122d6000830185610fad565b61123a6020830184611126565b9392505050565b60006080820190506112566000830187610fad565b6112636020830186611126565b6112706040830185611126565b81810360608301526112828184610fda565b905095945050505050565b60006020820190506112a26000830184610fbc565b92915050565b60006020820190506112bd6000830184610fcb565b92915050565b60006020820190506112d86000830184611022565b92915050565b600060208201905081810360008301526112f781611040565b9050919050565b60006020820190508181036000830152611317816110a6565b9050919050565b60006020820190508181036000830152611337816110e6565b9050919050565b60006020820190506113536000830184611126565b92915050565b600060a08201905061136e6000830188611126565b61137b6020830187610f9e565b6113886040830186611013565b6113956060830185610fad565b81810360808301526113a78184610fda565b90509695505050505050565b6000604051905081810181811067ffffffffffffffff821117156113da576113d9611598565b5b8060405250919050565b600067ffffffffffffffff8211156113ff576113fe611598565b5b601f19601f8301169050602081019050919050565b600081519050919050565b600082825260208201905092915050565b600082825260208201905092915050565b600061144c8261148d565b9050919050565b600061145e8261148d565b9050919050565b60008115159050919050565b6000819050919050565b600061148682611441565b9050919050565b600073ffffffffffffffffffffffffffffffffffffffff82169050919050565b600062ffffff82169050919050565b6000819050919050565b60006114d182611532565b9050919050565b60006114e3826114ea565b9050919050565b60006114f58261148d565b9050919050565b60006115078261150e565b9050919050565b60006115198261148d565b9050919050565b600061152b826114ad565b9050919050565b600061153d82611544565b9050919050565b600061154f8261148d565b9050919050565b82818337600083830152505050565b60005b83811015611583578082015181840152602081019050611568565b83811115611592576000848401525b50505050565bfe5b6000601f19601f8301169050919050565b6115b481611441565b81146115bf57600080fd5b50565b6115cb81611453565b81146115d657600080fd5b50565b6115e281611465565b81146115ed57600080fd5b50565b6115f981611471565b811461160457600080fd5b50565b6116108161147b565b811461161b57600080fd5b50565b611627816114bc565b811461163257600080fd5b5056fea264697066735822122026f160e192c87db20d8778f0d09e55f353eaec0127418c3762f7da318e92cafd64736f6c63430007060033",
  "devdoc": {
    "kind": "dev",
    "methods": {
      "constructor": {
        "params": {
          "dai_": "dai contract used in Uniswap v3 Pairs",
          "factory_": "Uniswap v3 UniswapV3Factory address",
          "weth_": "Weth contract used in Uniswap v3 Pairs"
        }
      },
      "flashFee(address,uint256)": {
        "details": "From ERC-3156. The fee to be charged for a given loan.",
        "params": {
          "amount": "The amount of tokens lent.",
          "token": "The loan currency."
        },
        "returns": {
          "_0": "The amount of `token` to be charged for the loan, on top of the returned principal."
        }
      },
      "flashLoan(address,address,uint256,bytes)": {
        "details": "From ERC-3156. Loan `amount` tokens to `receiver`, which needs to return them plus fee to this contract within the same transaction.",
        "params": {
          "amount": "The amount of tokens lent.",
          "receiver": "The contract receiving the tokens, needs to implement the `onFlashLoan(address user, uint256 amount, uint256 fee, bytes calldata)` interface.",
          "token": "The loan currency.",
          "userData": "A data parameter to be passed on to the `receiver` for any custom use."
        }
      },
      "getPairAddress(address)": {
        "details": "Get the Uniswap Pair that will be used as the source of a loan. The opposite token will be Weth, except for Weth that will be Dai.",
        "params": {
          "token": "The loan currency."
        },
        "returns": {
          "_0": "The Uniswap V3 Pair that will be used as the source of the flash loan."
        }
      },
      "maxFlashLoan(address)": {
        "details": "From ERC-3156. The amount of currency available to be lended.",
        "params": {
          "token": "The loan currency."
        },
        "returns": {
          "_0": "The amount of `token` that can be borrowed."
        }
      }
    },
    "version": 1
  },
  "userdoc": {
    "kind": "user",
    "methods": {},
    "version": 1
  },
  "storageLayout": {
    "storage": [
      {
        "astId": 7190,
        "contract": "contracts/uniswapV3/UniswapV3ERC3156.sol:UniswapV3ERC3156",
        "label": "factory",
        "offset": 0,
        "slot": "0",
        "type": "t_contract(IUniswapV3Factory)2948"
      },
      {
        "astId": 7192,
        "contract": "contracts/uniswapV3/UniswapV3ERC3156.sol:UniswapV3ERC3156",
        "label": "permissionedPairAddress",
        "offset": 0,
        "slot": "1",
        "type": "t_address"
      },
      {
        "astId": 7194,
        "contract": "contracts/uniswapV3/UniswapV3ERC3156.sol:UniswapV3ERC3156",
        "label": "weth",
        "offset": 0,
        "slot": "2",
        "type": "t_address"
      },
      {
        "astId": 7196,
        "contract": "contracts/uniswapV3/UniswapV3ERC3156.sol:UniswapV3ERC3156",
        "label": "dai",
        "offset": 0,
        "slot": "3",
        "type": "t_address"
      }
    ],
    "types": {
      "t_address": {
        "encoding": "inplace",
        "label": "address",
        "numberOfBytes": "20"
      },
      "t_contract(IUniswapV3Factory)2948": {
        "encoding": "inplace",
        "label": "contract IUniswapV3Factory",
        "numberOfBytes": "20"
      }
    }
  }
}